{
  "abi": [
    {
      "type": "constructor",
      "inputs": [
        {
          "name": "distributedToken_",
          "type": "address",
          "internalType": "address"
        }
      ],
      "stateMutability": "nonpayable"
    },
    {
      "type": "function",
      "name": "addAuthorization",
      "inputs": [
        {
          "name": "account",
          "type": "address",
          "internalType": "address"
        }
      ],
      "outputs": [],
      "stateMutability": "nonpayable"
    },
    {
      "type": "function",
      "name": "authorizedAccounts",
      "inputs": [
        {
          "name": "",
          "type": "address",
          "internalType": "address"
        }
      ],
      "outputs": [
        {
          "name": "",
          "type": "uint256",
          "internalType": "uint256"
        }
      ],
      "stateMutability": "view"
    },
    {
      "type": "function",
      "name": "deployDistributor",
      "inputs": [
        {
          "name": "merkleRoot",
          "type": "bytes32",
          "internalType": "bytes32"
        },
        {
          "name": "tokenAmount",
          "type": "uint256",
          "internalType": "uint256"
        }
      ],
      "outputs": [],
      "stateMutability": "nonpayable"
    },
    {
      "type": "function",
      "name": "distributedToken",
      "inputs": [],
      "outputs": [
        {
          "name": "",
          "type": "address",
          "internalType": "address"
        }
      ],
      "stateMutability": "view"
    },
    {
      "type": "function",
      "name": "distributors",
      "inputs": [
        {
          "name": "",
          "type": "uint256",
          "internalType": "uint256"
        }
      ],
      "outputs": [
        {
          "name": "",
          "type": "address",
          "internalType": "address"
        }
      ],
      "stateMutability": "view"
    },
    {
      "type": "function",
      "name": "dropDistributorAuth",
      "inputs": [
        {
          "name": "id",
          "type": "uint256",
          "internalType": "uint256"
        }
      ],
      "outputs": [],
      "stateMutability": "nonpayable"
    },
    {
      "type": "function",
      "name": "getBackTokensFromDistributor",
      "inputs": [
        {
          "name": "id",
          "type": "uint256",
          "internalType": "uint256"
        },
        {
          "name": "tokenAmount",
          "type": "uint256",
          "internalType": "uint256"
        }
      ],
      "outputs": [],
      "stateMutability": "nonpayable"
    },
    {
      "type": "function",
      "name": "nonce",
      "inputs": [],
      "outputs": [
        {
          "name": "",
          "type": "uint256",
          "internalType": "uint256"
        }
      ],
      "stateMutability": "view"
    },
    {
      "type": "function",
      "name": "removeAuthorization",
      "inputs": [
        {
          "name": "account",
          "type": "address",
          "internalType": "address"
        }
      ],
      "outputs": [],
      "stateMutability": "nonpayable"
    },
    {
      "type": "function",
      "name": "sendTokensToCustom",
      "inputs": [
        {
          "name": "dst",
          "type": "address",
          "internalType": "address"
        },
        {
          "name": "tokenAmount",
          "type": "uint256",
          "internalType": "uint256"
        }
      ],
      "outputs": [],
      "stateMutability": "nonpayable"
    },
    {
      "type": "function",
      "name": "sendTokensToDistributor",
      "inputs": [
        {
          "name": "id",
          "type": "uint256",
          "internalType": "uint256"
        }
      ],
      "outputs": [],
      "stateMutability": "nonpayable"
    },
    {
      "type": "function",
      "name": "tokensToDistribute",
      "inputs": [
        {
          "name": "",
          "type": "uint256",
          "internalType": "uint256"
        }
      ],
      "outputs": [
        {
          "name": "",
          "type": "uint256",
          "internalType": "uint256"
        }
      ],
      "stateMutability": "view"
    },
    {
      "type": "event",
      "name": "AddAuthorization",
      "inputs": [
        {
          "name": "account",
          "type": "address",
          "indexed": false,
          "internalType": "address"
        }
      ],
      "anonymous": false
    },
    {
      "type": "event",
      "name": "DeployDistributor",
      "inputs": [
        {
          "name": "id",
          "type": "uint256",
          "indexed": false,
          "internalType": "uint256"
        },
        {
          "name": "distributor",
          "type": "address",
          "indexed": false,
          "internalType": "address"
        },
        {
          "name": "tokenAmount",
          "type": "uint256",
          "indexed": false,
          "internalType": "uint256"
        }
      ],
      "anonymous": false
    },
    {
      "type": "event",
      "name": "RemoveAuthorization",
      "inputs": [
        {
          "name": "account",
          "type": "address",
          "indexed": false,
          "internalType": "address"
        }
      ],
      "anonymous": false
    },
    {
      "type": "event",
      "name": "SendTokensToDistributor",
      "inputs": [
        {
          "name": "id",
          "type": "uint256",
          "indexed": false,
          "internalType": "uint256"
        }
      ],
      "anonymous": false
    }
  ],
  "bytecode": {
    "object": "0x608060405234801561001057600080fd5b506040516117f73803806117f78339818101604052602081101561003357600080fd5b50516001600160a01b03811661007a5760405162461bcd60e51b815260040180806020018281038252602f8152602001806117c8602f913960400191505060405180910390fd5b336000818152602081815260409182902060019055600280546001600160a01b0319166001600160a01b038616179055815192835290517f599a298163e1678bb1c676052a8930bf0b8a1261ed6e01b8a2391e55f70001029281900390910190a1506116dd806100eb6000396000f3fe608060405234801561001057600080fd5b50600436106100b45760003560e01c80636611ac35116100715780636611ac35146101be5780637667d18c146101e15780638f49da4b146101fe57806394f3f81d14610206578063affed0e01461022c578063bee9cd8114610234576100b4565b80631d70e433146100b95780631f1e9f26146100d857806324ba58841461010457806335b281531461013c5780633cdaf64b1461016257806350b492ba14610185575b600080fd5b6100d6600480360360208110156100cf57600080fd5b5035610251565b005b6100d6600480360360408110156100ee57600080fd5b506001600160a01b0381351690602001356103bf565b61012a6004803603602081101561011a57600080fd5b50356001600160a01b03166104d8565b60408051918252519081900360200190f35b6100d66004803603602081101561015257600080fd5b50356001600160a01b03166104ea565b6100d66004803603604081101561017857600080fd5b508035906020013561058a565b6101a26004803603602081101561019b57600080fd5b5035610701565b604080516001600160a01b039092168252519081900360200190f35b6100d6600480360360408110156101d457600080fd5b508035906020013561071c565b61012a600480360360208110156101f757600080fd5b50356107df565b6101a26107f1565b6100d66004803603602081101561021c57600080fd5b50356001600160a01b0316610800565b61012a61089f565b6100d66004803603602081101561024a57600080fd5b50356108a5565b3360009081526020819052604090205460011461029f5760405162461bcd60e51b815260040180806020018281038252602f81526020018061162e602f913960400191505060405180910390fd5b6000818152600460205260409020546102e95760405162461bcd60e51b81526004018080602001828103825260288152602001806116066028913960400191505060405180910390fd5b60008181526004602081815260408084208054908590556002546003845282862054835163a9059cbb60e01b81526001600160a01b0391821696810196909652602486018390529251919592169363a9059cbb936044808301949193928390030190829087803b15801561035c57600080fd5b505af1158015610370573d6000803e3d6000fd5b505050506040513d602081101561038657600080fd5b50506040805183815290517fb2ac1ef7b607965a6321482e340a46d156db86760c54ba4345bca11184c87e369181900360200190a15050565b3360009081526020819052604090205460011461040d5760405162461bcd60e51b815260040180806020018281038252602f81526020018061162e602f913960400191505060405180910390fd5b6001600160a01b0382166104525760405162461bcd60e51b815260040180806020018281038252602181526020018061165d6021913960400191505060405180910390fd5b6002546040805163a9059cbb60e01b81526001600160a01b038581166004830152602482018590529151919092169163a9059cbb9160448083019260209291908290030181600087803b1580156104a857600080fd5b505af11580156104bc573d6000803e3d6000fd5b505050506040513d60208110156104d257600080fd5b50505050565b60006020819052908152604090205481565b336000908152602081905260409020546001146105385760405162461bcd60e51b815260040180806020018281038252602f81526020018061162e602f913960400191505060405180910390fd5b6001600160a01b0381166000818152602081815260409182902060019055815192835290517f599a298163e1678bb1c676052a8930bf0b8a1261ed6e01b8a2391e55f70001029281900390910190a150565b336000908152602081905260409020546001146105d85760405162461bcd60e51b815260040180806020018281038252602f81526020018061162e602f913960400191505060405180910390fd5b600081116106175760405162461bcd60e51b815260040180806020018281038252602a81526020018061167e602a913960400191505060405180910390fd5b6106246001546001610960565b6001556002546040516000916001600160a01b0316908490610645906109a8565b6001600160a01b0390921682526020820152604080519182900301906000f080158015610676573d6000803e3d6000fd5b5060018054600090815260036020908152604080832080546001600160a01b0387166001600160a01b03199091168117909155845484526004835292819020879055925483519081529081019190915280820185905290519192507f40a721b9f8d94d47245dc4e4396edb86b156a4608e70a8330745f0d9ae12b99b919081900360600190a1505050565b6003602052600090815260409020546001600160a01b031681565b3360009081526020819052604090205460011461076a5760405162461bcd60e51b815260040180806020018281038252602f81526020018061162e602f913960400191505060405180910390fd5b6000828152600360205260408082205481516305ab421d60e01b81523060048201526024810185905291516001600160a01b03909116926305ab421d926044808201939182900301818387803b1580156107c357600080fd5b505af11580156107d7573d6000803e3d6000fd5b505050505050565b60046020526000908152604090205481565b6002546001600160a01b031681565b3360009081526020819052604090205460011461084e5760405162461bcd60e51b815260040180806020018281038252602f81526020018061162e602f913960400191505060405180910390fd5b6001600160a01b03811660008181526020818152604080832092909255815192835290517f8834a87e641e9716be4f34527af5d23e11624f1ddeefede6ad75a9acfc31b9039281900390910190a150565b60015481565b336000908152602081905260409020546001146108f35760405162461bcd60e51b815260040180806020018281038252602f81526020018061162e602f913960400191505060405180910390fd5b6000818152600360205260408082205481516394f3f81d60e01b815230600482015291516001600160a01b03909116926394f3f81d926024808201939182900301818387803b15801561094557600080fd5b505af1158015610959573d6000803e3d6000fd5b5050505050565b808201828110156109a25760405162461bcd60e51b815260040180806020018281038252602f8152602001806115d7602f913960400191505060405180910390fd5b92915050565b610c21806109b68339019056fe61010060405234801561001157600080fd5b50604051610c21380380610c218339818101604052604081101561003457600080fd5b50805160209182015133600081815280855260409081902060019055606082811b60a05284901b6001600160601b03191660805260c08390524260e052805191825251929391927f599a298163e1678bb1c676052a8930bf0b8a1261ed6e01b8a2391e55f7000102929181900390910190a1505060805160601c60a05160601c60c05160e051610b256100fc600039806102af528061089752508061052752806106e552508061028152806107a952508061036652806105ae52806108bb5250610b256000f3fe608060405234801561001057600080fd5b50600436106100a95760003560e01c80638da5cb5b116100715780638da5cb5b146101ce57806393a10984146101f257806394f3f81d146101fa5780639e34070f14610220578063ecda10f514610251578063fc0c546a14610259576100a9565b806305ab421d146100ae57806324ba5884146100dc5780632e7ba6ef146101145780632eb4a7ab146101a057806335b28153146101a8575b600080fd5b6100da600480360360408110156100c457600080fd5b506001600160a01b038135169060200135610261565b005b610102600480360360208110156100f257600080fd5b50356001600160a01b0316610458565b60408051918252519081900360200190f35b6100da6004803603608081101561012a57600080fd5b8135916001600160a01b03602082013516916040820135919081019060808101606082013564010000000081111561016157600080fd5b82018360208201111561017357600080fd5b8035906020019184602083028401116401000000008311171561019557600080fd5b50909250905061046a565b6101026106e3565b6100da600480360360208110156101be57600080fd5b50356001600160a01b0316610707565b6101d66107a7565b604080516001600160a01b039092168252519081900360200190f35b6101026107cb565b6100da6004803603602081101561021057600080fd5b50356001600160a01b03166107d2565b61023d6004803603602081101561023657600080fd5b5035610871565b604080519115158252519081900360200190f35b610102610895565b6101d66108b9565b336000818152602081905260409020546102e4916001909114906102df907f00000000000000000000000000000000000000000000000000000000000000006001600160a01b0316146102d77f00000000000000000000000000000000000000000000000000000000000000006276a7006108dd565b421015610925565b610929565b61031f5760405162461bcd60e51b815260040180806020018281038252602b815260200180610a7e602b913960400191505060405180910390fd5b6001600160a01b0382166103645760405162461bcd60e51b8152600401808060200182810382526021815260200180610aa96021913960400191505060405180910390fd5b7f00000000000000000000000000000000000000000000000000000000000000006001600160a01b031663a9059cbb83836040518363ffffffff1660e01b815260040180836001600160a01b03166001600160a01b0316815260200182815260200192505050602060405180830381600087803b1580156103e457600080fd5b505af11580156103f8573d6000803e3d6000fd5b505050506040513d602081101561040e57600080fd5b5050604080516001600160a01b03841681526020810183905281517f09bd3894cb7ab22415416dac0fecc519855a4b0842f1c9115e562ef557ab577b929181900390910190a15050565b60006020819052908152604090205481565b61047385610871565b156104af5760405162461bcd60e51b8152600401808060200182810382526026815260200180610aca6026913960400191505060405180910390fd5b6040805160208082018890526bffffffffffffffffffffffff19606088901b1682840152605480830187905283518084039091018152607483018085528151918301919091206094928602808501840190955285825293610552939192879287928392909101908490808284376000920191909152507f0000000000000000000000000000000000000000000000000000000000000000925085915061092d9050565b6105a3576040805162461bcd60e51b815260206004820152601f60248201527f4d65726b6c654469737472696275746f722f696e76616c69642d70726f6f6600604482015290519081900360640190fd5b6105ac866109d6565b7f00000000000000000000000000000000000000000000000000000000000000006001600160a01b031663a9059cbb86866040518363ffffffff1660e01b815260040180836001600160a01b03166001600160a01b0316815260200182815260200192505050602060405180830381600087803b15801561062c57600080fd5b505af1158015610640573d6000803e3d6000fd5b505050506040513d602081101561065657600080fd5b50516106935760405162461bcd60e51b81526004018080602001828103825260218152602001806109ff6021913960400191505060405180910390fd5b604080518781526001600160a01b038716602082015280820186905290517f4ec90e965519d92681267467f775ada5bd214aa92c0dc93d90a5e880ce9ed0269181900360600190a1505050505050565b7f000000000000000000000000000000000000000000000000000000000000000081565b336000908152602081905260409020546001146107555760405162461bcd60e51b815260040180806020018281038252602f815260200180610a4f602f913960400191505060405180910390fd5b6001600160a01b0381166000818152602081815260409182902060019055815192835290517f599a298163e1678bb1c676052a8930bf0b8a1261ed6e01b8a2391e55f70001029281900390910190a150565b7f000000000000000000000000000000000000000000000000000000000000000081565b6276a70081565b336000908152602081905260409020546001146108205760405162461bcd60e51b815260040180806020018281038252602f815260200180610a4f602f913960400191505060405180910390fd5b6001600160a01b03811660008181526020818152604080832092909255815192835290517f8834a87e641e9716be4f34527af5d23e11624f1ddeefede6ad75a9acfc31b9039281900390910190a150565b610100810460009081526001602081905260409091205460ff9092161b9081161490565b7f000000000000000000000000000000000000000000000000000000000000000081565b7f000000000000000000000000000000000000000000000000000000000000000081565b8082018281101561091f5760405162461bcd60e51b815260040180806020018281038252602f815260200180610a20602f913960400191505060405180910390fd5b92915050565b1690565b1790565b600081815b85518110156109cb57600086828151811061094957fe5b6020026020010151905080831161099057828160405160200180838152602001828152602001925050506040516020818303038152906040528051906020012092506109c2565b808360405160200180838152602001828152602001925050506040516020818303038152906040528051906020012092505b50600101610932565b509092149392505050565b61010081046000908152600160208190526040909120805460ff9093169190911b909117905556fe4d65726b6c654469737472696275746f722f7472616e736665722d6661696c65644d65726b6c654469737472696275746f72466163746f72792f6164642d75696e742d75696e742d6f766572666c6f774d65726b6c654469737472696275746f72466163746f72792f6163636f756e742d6e6f742d617574686f72697a65644d65726b6c654469737472696275746f72466163746f72792f63616e6e6f742d73656e642d746f6b656e734d65726b6c654469737472696275746f72466163746f72792f6e756c6c2d6473744d65726b6c654469737472696275746f722f64726f702d616c72656164792d636c61696d6564a264697066735822122001e90c582a018987b84b4406c14acda7c4af2ccb91ead4d7722968675db781e964736f6c634300060700334d65726b6c654469737472696275746f72466163746f72792f6164642d75696e742d75696e742d6f766572666c6f774d65726b6c654469737472696275746f72466163746f72792f6e6f7468696e672d746f2d73656e644d65726b6c654469737472696275746f72466163746f72792f6163636f756e742d6e6f742d617574686f72697a65644d65726b6c654469737472696275746f72466163746f72792f6e756c6c2d6473744d65726b6c654469737472696275746f72466163746f72792f6e756c6c2d746f6b656e2d616d6f756e74a26469706673582212207f3f78432fa3031e39a854773d31bdca10c3e07ee6ba84d173fb9a16148a6d1e64736f6c634300060700334d65726b6c654469737472696275746f72466163746f72792f6e756c6c2d64697374726962757465642d746f6b656e",
    "linkReferences": {}
  },
  "methodIdentifiers": {
    "addAuthorization(address)": "35b28153",
    "authorizedAccounts(address)": "24ba5884",
    "deployDistributor(bytes32,uint256)": "3cdaf64b",
    "distributedToken()": "8f49da4b",
    "distributors(uint256)": "50b492ba",
    "dropDistributorAuth(uint256)": "bee9cd81",
    "getBackTokensFromDistributor(uint256,uint256)": "6611ac35",
    "nonce()": "affed0e0",
    "removeAuthorization(address)": "94f3f81d",
    "sendTokensToCustom(address,uint256)": "1f1e9f26",
    "sendTokensToDistributor(uint256)": "1d70e433",
    "tokensToDistribute(uint256)": "7667d18c"
  },
  "id": 9
}